:100000000C942A000C9447000C9447000C94470071
:100010000C9447000C9447000C9447000C94F10496
:100020000C941A050C9443050C946A050C949305E2
:100030000C9447000C9447000C9447000C94470024
:100040000C9447000C9447000C9447000C94470014
:100050000C94470011241FBECFE5D8E0DEBFCDBF12
:1000600010E0A0E6B0E0E6E9FDE002C005900D92E8
:10007000A43EB107D9F720E0A4EEB0E001C01D9284
:10008000AF3EB207E1F70E944F030C94C9060C94EF
:1000900000001F93CF93DF93182FD62FC5E00E9447
:1000A0003006C150E1F76D2F70E06F5F7F4F611B2D
:1000B00071090E94BC05DF91CF911F9108950E94A4
:1000C00044020E94400184E790E00E94E70268E059
:1000D00082E00E94D1020E94C40487EF92EC0E9449
:1000E000E9048CEC90E00E94EC044091E5006FE0A4
:1000F00080E00E9449008093EA0008952FE38DE09C
:1001000093E0215080409040E1F700C00000109241
:10011000E6008091E5008F5F8093E50061E081E07B
:100120000E94D10284E790E00E94E7024091E5003E
:100130006FE080E00E9449008093EA0068E082E07E
:100140000E94D1021092E90008950E94030364E026
:1001500081E00E94D10285E890E00E94E7020E94BF
:100160007E0008950E94030364E081E00E94D102B2
:100170008FE890E00E94E7020E947E0008950E94AE
:10018000030361E081E00E94D1028AE990E00E94CD
:10019000E7020E947E0008958091E6008F5F8093C1
:1001A000E600833031F48091E900811102C00E94A1
:1001B000BF0008950E94030361E081E00E94D10224
:1001C00089EA90E00E94E7020E947E00089581E0A3
:1001D0008093E9008BEE90E00E9440068093E4005B
:1001E00081508E3078F50E94030361E081E00E9427
:1001F000D10289EB90E00E94E7028091E4000E9426
:10020000070361E082E00E94D10286EC90E00E9448
:10021000E7028091EA000E9407032FE38DE093E05C
:10022000215080409040E1F700C000009091E40030
:100230008091EA00981303C00E94A50008950E94CF
:10024000B20008950E94DA000895CF93DF93D0E0C2
:100250000E949101C82F8F3F51F00E948C02ED2F18
:10026000F0E0E551FF4FC083CD3329F0DF5FD4309C
:1002700078F3CD3311F40E94E700DF91CF91089518
:1002800041E060E083E00E94540341E061E083E0EC
:100290000E94540341E062E083E00E94540341E085
:1002A00063E083E00E94540340E064E083E00E9446
:1002B000540340E065E083E00E94540340E066E0C0
:1002C00083E00E94540340E067E083E00E9454030F
:1002D00041E060E083E00E94D90341E061E083E017
:1002E0000E94D90341E062E083E00E94D90341E02B
:1002F00063E083E00E94D90341E064E083E00E9470
:10030000D90341E065E083E00E94D90341E066E063
:1003100083E00E94D90341E067E083E00E94D903B3
:1003200008953F924F925F926F927F928F929F9229
:10033000AF92BF92CF92DF92EF92FF920F931F93F3
:10034000CF93DF930F2EFCE6CF2EF0E0DF2EF02DC3
:100350000F2EF3ED8F2EF0E09F2EF02D0F2EF4E7F1
:100360004F2EF0E05F2EF02D33243A940F2EFCE652
:10037000AF2EF0E0BF2EF02D360140E0F601618196
:1003800080810E94D90304E610E07401E8016981CC
:1003900088810E949604811108C0698188810E9429
:1003A00096048823D1F3F70130800E5F1F4FFFEFD3
:1003B000EF1AFF0A0A151B0549F741E0F3016181B5
:1003C00080810E94D903F2E0CF0ED11C84E0880E18
:1003D000911CC414D50481F6832DDF91CF911F9118
:1003E0000F91FF90EF90DF90CF90BF90AF909F90D4
:1003F0008F907F906F905F904F903F900895CF9334
:10040000C82F40E060E081E00E94D90340E061E055
:1004100081E00E94D9036C2F607F80E00E945E041F
:1004200041E062E081E00E94D90381EE94E001970F
:10043000F1F700C0000040E062E081E00E94D903D3
:1004400083EC99E00197F1F700C000006C2F6295F2
:10045000607F80E00E945E0441E062E081E00E94F3
:10046000D90381EE94E00197F1F700C0000040E06D
:1004700062E081E00E94D90383EC99E00197F1F7F3
:1004800000C00000CF91089541E060E081E00E944B
:10049000540341E061E081E00E94540341E062E0E6
:1004A00081E00E94540341E064E080E00E94540334
:1004B00041E065E080E00E94540341E066E080E0B6
:1004C0000E94540341E067E080E00E94540383ED02
:1004D00090E30197F1F700C0000082E00E94FF0165
:1004E00088E20E94FF0189EF90E00197F1F700C0D8
:1004F00000008CE00E94FF0189EF90E00197F1F786
:1005000000C0000081E00E94FF0181EE94E00197AD
:10051000F1F700C000000895CF93C82F41E060E0DC
:1005200081E00E94D90340E061E081E00E94D903AC
:100530006C2F607F80E00E945E0441E062E081E019
:100540000E94D90381EE94E00197F1F700C000000A
:1005500040E062E081E00E94D90383EC99E00197DA
:10056000F1F700C000006C2F6295607F80E00E9470
:100570005E0441E062E081E00E94D90381EE94E0F4
:100580000197F1F700C0000040E062E081E00E94C6
:10059000D90383EC99E00197F1F700C00000CF91F7
:1005A00008959FEF960F903178F4813019F08230E2
:1005B00031F00CC08FE7860F0E94FF0107C08FEB60
:1005C000860F0E94FF0102C08FEF089508950F93D8
:1005D0001F93CF93FC018081882389F08F01C0E0B5
:1005E0000E948C0289EF90E00197F1F700C00000B3
:1005F000CF5FF801EC0FF11D80818111F1CFCF9118
:100600001F910F91089581E00E94FF010895CF93FB
:10061000DF9399E2899F912D112492959F70282F45
:1006200034E6939F201911249DEC299F212D11243C
:10063000269526952695C0E3C20F899F912D1124FA
:10064000969596959695990F292F220F220F920F26
:10065000282F291BD0E3D20F8A3020F48D2F0E943F
:100660008C021AC096EF980F9A3538F48C2F0E949E
:100670008C028D2F0E948C020FC099E2899F812DE0
:10068000112482958F70805D0E948C028C2F0E94B5
:100690008C028D2F0E948C02DF91CF9108950E94D1
:1006A0005F000E942501FDCF413009F040C081303C
:1006B000A1F028F08230F9F0833059F108956830C4
:1006C00008F076C02AB381E090E002C0880F991F3D
:1006D0006A95E2F7822B8ABB0895683008F068C0FB
:1006E00027B381E090E002C0880F991F6A95E2F776
:1006F000822B87BB0895683008F05AC024B381E08C
:1007000090E002C0880F991F6A95E2F7822B84BBA4
:100710000895683008F04CC021B381E090E002C039
:10072000880F991F6A95E2F7822B81BB08954111CA
:100730003FC08130A1F028F08230F9F0833059F1C8
:1007400008956830A8F52AB381E090E002C0880FD0
:10075000991F6A95E2F7809582238ABB08956830D5
:1007600038F527B381E090E002C0880F991F6A95A1
:10077000E2F78095822387BB08956830C8F424B3DC
:1007800081E090E002C0880F991F6A95E2F780959A
:10079000822384BB0895683058F421B381E090E04F
:1007A00002C0880F991F6A95E2F78095822381BB6A
:1007B0000895413009F040C08130A1F028F0823026
:1007C000F9F0833059F10895683008F076C02BB302
:1007D00081E090E002C0880F991F6A95E2F7822BB2
:1007E0008BBB0895683008F068C028B381E090E0C2
:1007F00002C0880F991F6A95E2F7822B88BB089583
:10080000683008F05AC025B381E090E002C0880F3C
:10081000991F6A95E2F7822B85BB0895683008F02E
:100820004CC022B381E090E002C0880F991F6A9506
:10083000E2F7822B82BB089541113FC08130A1F0C5
:1008400028F08230F9F0833059F108956830A8F526
:100850002BB381E090E002C0880F991F6A95E2F700
:10086000809582238BBB0895683038F528B381E0EA
:1008700090E002C0880F991F6A95E2F78095822365
:1008800088BB08956830C8F425B381E090E002C0C9
:10089000880F991F6A95E2F78095822385BB08959A
:1008A000683058F422B381E090E002C0880F991FAD
:1008B0006A95E2F78095822382BB08956130A1F4A6
:1008C000813049F028F0823049F0833051F00895AA
:1008D0008FEF8BBB08958FEF88BB08958FEF85BB9B
:1008E00008958FEF82BB0895611110C0813041F0EF
:1008F00028F0823039F0833039F008951BBA08951A
:1009000018BA089515BA089512BA0895813041F0C1
:1009100028F0823039F0833039F008956BBB0895A8
:1009200068BB089565BB089562BB0895813079F076
:1009300028F08230A9F08330E1F024C089B390E040
:1009400002C0959587956A95E2F78170089586B300
:1009500090E002C0959587956A95E2F781700895B9
:1009600083B390E002C0959587956A95E2F7817010
:10097000089580B390E002C0959587956A95E2F757
:100980008170089580E0089583B78B7F83BF83B71C
:100990008D7F83BF83B78E7F83BF8FB780688FBF04
:1009A00089B7846089BF89B78F7E89BF89B7877F00
:1009B00089BF8EB58F7E8EBD8EB5877F8EBD8FB57C
:1009C0008D7F8FBD8FB58E7F8FBD8EB583608EBDC1
:1009D00008959DBD8CBD08959093E8008093E70035
:1009E00008951F920F920FB60F9211242F933F93E9
:1009F0004F935F936F937F938F939F93AF93BF9327
:100A0000EF93FF93E091E700F091E800309709F051
:100A10000995FF91EF91BF91AF919F918F917F9138
:100A20006F915F914F913F912F910F900FBE0F905B
:100A30001F9018951F920F920FB60F9211242F93AB
:100A40003F934F935F936F937F938F939F93AF9356
:100A5000BF93EF93FF93E091E700F091E8003097A8
:100A600009F00995FF91EF91BF91AF919F918F91FF
:100A70007F916F915F914F913F912F910F900FBE9A
:100A80000F901F9018951F920F920FB60F9211247E
:100A90002F933F934F935F936F937F938F939F9386
:100AA000AF93BF93EF93FF93E091E700F091E800DD
:100AB0000995FF91EF91BF91AF919F918F917F9198
:100AC0006F915F914F913F912F910F900FBE0F90BB
:100AD0001F9018951F920F920FB60F9211242F930B
:100AE0003F934F935F936F937F938F939F93AF93B6
:100AF000BF93EF93FF93E091E700F091E800309708
:100B000009F00995FF91EF91BF91AF919F918F915E
:100B10007F916F915F914F913F912F910F900FBEF9
:100B20000F901F9018951F920F920FB60F921124DD
:100B30002F933F934F935F936F937F938F939F93E5
:100B4000AF93BF93EF93FF93E091E700F091E8003C
:100B5000309709F00995FF91EF91BF91AF919F9167
:100B60008F917F916F915F914F913F912F910F9056
:100B70000FBE0F901F90189597FB072E16F4009448
:100B800007D077FD09D00E94D00507FC05D03EF4C0
:100B9000909581959F4F0895709561957F4F089529
:100BA000AA1BBB1B51E107C0AA1FBB1FA617B70793
:100BB00010F0A61BB70B881F991F5A95A9F78095AF
:100BC0009095BC01CD0108958F929F92AF92BF92F4
:100BD000CF92DF92EF92FF92CF93DF93EC01688187
:100BE00079818A819B81611571058105910521F4C7
:100BF00064E279ED8BE597E02DE133EF41E050E0E1
:100C00000E94660649015A019B01AC01A7EAB1E4C2
:100C10000E9485066B017C01ACEEB4EFA501940146
:100C20000E949306DC01CB018C0D9D1DAE1DBF1DE6
:100C3000B7FF03C00197A109B04888839983AA83AD
:100C4000BB839F77DF91CF91FF90EF90DF90CF90A4
:100C5000BF90AF909F908F9008950E94E4050895F3
:100C600080E690E00E94E4050895A0E0B0E0809363
:100C7000600090936100A0936200B09363000895B8
:100C8000FC0188279927E89421912032E9F3293043
:100C900010F02E30C8F32B3241F02D3239F4689425
:100CA00004C00E945E06820F911D219120532A30BC
:100CB000C0F31EF4909581959F4F08957AE0979F19
:100CC000902D879F802D910D11240895052E97FB5F
:100CD0001EF400940E947D0657FD07D00E949806DE
:100CE00007FC03D04EF40C947D065095409530954A
:100CF00021953F4F4F4F5F4F089590958095709588
:100D000061957F4F8F4F9F4F08950E94BA06A59F10
:100D1000900DB49F900DA49F800D911D11240895F6
:100D2000B7FF0C9485060E948506821B930B0895DD
:100D3000A1E21A2EAA1BBB1BFD010DC0AA1FBB1FDF
:100D4000EE1FFF1FA217B307E407F50720F0A21B51
:100D5000B30BE40BF50B661F771F881F991F1A94BE
:100D600069F760957095809590959B01AC01BD01E8
:100D7000CF010895A29FB001B39FC001A39F700D42
:100D8000811D1124911DB29F700D811D1124911D93
:060D90000895F894FFCF66
:100D96000100000003040305030603070300030123
:100DA60003020303477565737320546865204E7507
:100DB6006D62657200594F5520574F4E20210059DC
:100DC6004F55204C4F5345202100596F75204D75C6
:100DD6007374205072657373004E6F742056616C85
:100DE60069642052616E676500596F757220477598
:100DF6006573733A200041637475616C202020206E
:100E06003A200037343143383532303936333D2FC6
:040E16002A2D2B0056
:00000001FF
